:020000040800F2
:10000000E0120020790800084D0400084F040008A1
:1000100053040008570400085B04000800000000B7
:100020000000000000000000000000005F04000865
:100030006104000800000000630400086504000873
:100040009308000893080008930800089308000824
:100050009308000893080008930800089308000814
:100060009308000893080008930800089308000804
:1000700093080008930800089308000893080008F4
:1000800093080008930800089308000893080008E4
:1000900093080008930800089308000893080008D4
:1000A00093080008930800089308000893080008C4
:1000B00093080008930800089308000893080008B4
:1000C00093080008930800089308000893080008A4
:1000D00093080008ED07000893080008930800083B
:1000E0009308000893080008930800089308000884
:1000F0009308000893080008930800089308000874
:100100009308000893080008930800089308000863
:100110009308000893080008930800089308000853
:100120009308000893080008930800089308000843
:1001300000F002F800F03FF80AA090E8000C8244BA
:100140008344AAF10107DA4501D100F034F8AFF297
:10015000090EBAE80F0013F0010F18BFFB1A43F0A5
:100160000103184798020100B8020100103A24BFA9
:1001700078C878C1FAD8520724BF30C830C144BF0C
:1001800004680C607047000000230024002500264E
:10019000103A28BF78C1FBD8520728BF30C148BFEA
:1001A0000B607047642902F00583002070471FB57B
:1001B0001FBD10B510BD02F091FC1146FFF7F7FF0F
:1001C00000F008F802F0AFFC03B4FFF7F2FF03BC45
:1001D00000F0B2FA1CB500F035FA00F0A7FA01F011
:1001E000B1FC00F02FFA4FF4A06000F065FB4FF473
:1001F000E13000F0AFFA02F0D9F87CA002F09AFAF0
:1002000001F003FB01F07AFC01F0FFFA7B4801F0FA
:1002100050FC01F03EFB012030216823784ACDE9F3
:100220000010A6214FF4B87001F05FFBDCE04FF442
:100230008041744800F09FFC0028F7D17248007894
:1002400040F04000704908700846007810F0400FF8
:10025000ECD00020087001F0FEFE6B48408868B1C9
:100260006948808950B16948017869A002F062FA52
:1002700065488289418869A002F05CFA6348007889
:10028000012802D002287CD180E05F484088D8B3A2
:100290005D488089C0B35C484088B0F5FA7F34DDA2
:1002A00059484088B0F5487F2FDA574880890028A0
:1002B0002BDD55488089B0F5F07F26DA5B48006871
:1002C000092805DA59480068401C5849086002E0CE
:1002D0000020564908605548016855A002F02AFAE6
:1002E00001203021CDE9001050480068C0EBC0016A
:1002F00001EB4010424901EB00126823A6214FF4A4
:10030000B87001F0F2FA40E0FFE73F484088C8B318
:100310003D488089B0B33C484088002835DD3A48E4
:100320004088B0F5967F30DA3748808900282CDD88
:1003300035488089B0F5F07F27DA3C48006800280E
:1003400005DD3A480068401E3849086002E009208F
:10035000364908603548016835A002F0EBF9012004
:100360003021CDE9001031480068C0EBC00101EB3D
:100370004010234901EB00126823A6214FF4B87006
:1003800001E021E001E001F0B0FA1EE01E484088E3
:10039000C8B11D488089B0B11B48808898B11A48FF
:1003A000C08980B11948017819A002F0C3F9164834
:1003B0008289418819A002F0BDF91348C289818859
:1003C0001EA002F0B7F900E000BF00BF002409E062
:1003D00000210D48801C20F814100A3020F8141059
:1003E000601CC4B2022CF3DB21E70000537461727D
:1003F0007420546F7563682E2E2E00007C48000810
:100400003C2B0008000C0140680C00201D0100205E
:10041000636F756E743A25640D0A000078303A25D2
:10042000642C79303A25640D0A0000000000002099
:100430004570644E756D3D25640D0A0078313A258E
:10044000642C79313A25640D0A000000704700BF22
:10045000FEE700BFFEE700BFFEE700BFFEE7704714
:1004600070477047704700000CB500200190009065
:100470006B48006840F480306949086000BF6848F4
:10048000006800F4003000900198401C0190009832
:1004900018B90198B0F5A06FF1D16148006810F467
:1004A000003F02D00120009001E000200090009861
:1004B000012842D15B48006840F0100059490860AB
:1004C0000846006820F0030008600846006840F015
:1004D0000200086052484068514948600846406838
:1004E00048600846406840F48060486008464068BC
:1004F00020F47C1048600846406840F4E8104860EA
:100500000846006840F08070086000BF44480068FA
:1005100010F0007FFAD04248406820F003004049C4
:1005200048600846406840F00200486000BF3C4810
:10053000406800F00C000828F9D10CBD10B5FFF799
:1005400093FF10BD10B53648006840F001003449F3
:100550000860084640683449084031494860084608
:100560000068324908402E4908600846006820F4B7
:10057000802008600846406820F4FE0048604FF480
:100580001F008860FFF7DAFF4FF00060284908601D
:1005900010BD10B5002100200022214B5B6803F044
:1005A0000C0121B1042906D0082928D107E0214BEC
:1005B000214C236027E01F4B1F4C236023E0184B86
:1005C0005B6803F47010164B5B6803F480320223FF
:1005D00003EB904022B9194B4343174C23600DE0C5
:1005E0000F4B5B6813F4003F04D0144B4343124C91
:1005F000236003E00F4B43430F4C236003E00D4B9C
:100600000D4C236000BF00BF054B5B68C3F30313B1
:100610000B4CE15C084B1B68CB40074C236010BDC2
:1006200000100240002002400000FFF8FFFFF6FE2D
:1006300008ED00E000127A000400002000093D00EF
:100640000800002010B56FF0040000F085F9334871
:1006500000683349B0FBF1F0324908700846007871
:1006600000EB4001C1EBC0104FF6FF7101EAC00082
:100670002D49088010BD01462A4A12784A434FF09E
:10068000E0235A6100229A611A46126942F001027F
:100690001A6100BF4FF0E022106910F0010F02D084
:1006A00010F4803FF6D04FF0E022126922F00102F0
:1006B0004FF0E0231A6100229A61704701461A4AFE
:1006C00012884A434FF0E0235A6100229A611A4689
:1006D000126942F001021A6100BF4FF0E022106976
:1006E00010F0010F02D010F4803FF6D04FF0E0225E
:1006F000126922F001024FF0E0231A6100229A6190
:10070000704730B50446002505E04FF47A70FFF7D6
:10071000D5FF681C85B2A542F7DB30BD0400002080
:1007200000127A00180000201A00002010B54FF4C3
:10073000A06000F0C1F810BD014600BF704700BFC7
:10074000494A128812F0400FFAD0C2B2464B1B1D24
:100750001A80704710B586B00446012144F20500A6
:1007600000F02EFC4FF40070ADF8140003208DF85B
:10077000160018208DF8170005A93C4800F06AF90A
:100780004FF48060ADF8140004208DF8170005A91F
:10079000364800F05FF925208DF8000003208DF821
:1007A00001008DF8020001208DF80300684600F07A
:1007B00088F801940020ADF80800ADF80A00ADF803
:1007C0000C00ADF810000C20ADF80E0001A9264871
:1007D00000F0A1FC012240F22551234800F033FD36
:1007E0000121214800F023FD06B010BD10B540F2F4
:1007F00025511D4800F00CFE10B31B4800F088FD89
:10080000C4B21B48008810F4004F2BD11848008850
:1008100010F4804F0CD00A2C03D00020144908801B
:1008200020E01348008840F400401149088019E096
:100830000D2C06D10E48008840F480400C490880F9
:1008400010E00B480088C0F30D000A490C5408481A
:100850000088401C0649088008460088C72801DD3A
:100860000020088010BD0000003801400008014051
:100870001C00002024010020094880470948004747
:10088000FEE7FEE7FEE7FEE7FEE7FEE7FEE7FEE740
:10089000FEE7FEE704480549054A064B704700009D
:1008A0004505000831010008E00C0020E01200209E
:1008B000E00E0020E00E002031490143314A116072
:1008C000704770B5002100230F22C4780CB32D4C63
:1008D000246804F4E064C4F5E064210AC1F104036F
:1008E000CA40447804FA03F1847814402143090192
:1008F000254C0678A155047804F01F050124AC406E
:1009000005786D114FF0E02606EB8505C5F800412E
:1009100009E0047804F01F050124AC401B4D067863
:10092000761145F8264070BD194A0A400243154B1E
:100930001B1F1A60704739B1124A121D1268024318
:10094000104B1B1D1A6006E00E4A121D12688243EE
:100950000C4B1B1D1A607047042808D14FF0E02192
:10096000096941F004014FF0E022116107E04FF006
:10097000E021096921F004014FF0E0221161704784
:100980000000FA050CED00E000E400E080E100E08A
:1009900080FFFF1F10B50446CA48844208D10121D8
:1009A000042000F027FB0021042000F023FB46E098
:1009B000C548844208D10121082000F01BFB00211A
:1009C000082000F017FB3AE0C048844208D101211A
:1009D000102000F00FFB0021102000F00BFB2EE098
:1009E000BB48844208D10121202000F003FB0021F4
:1009F000202000F0FFFA22E0B648844208D101210D
:100A0000402000F0F7FA0021402000F0F3FA16E051
:100A1000B148844208D10121802000F0EBFA002186
:100A2000802000F0E7FA0AE0AC48844207D10121B7
:100A3000801500F0DFFA0021A01500F0DBFA10BDF0
:100A400010B50121084600F0D5FA0021012000F080
:100A5000D1FA10BD2DE9F041024600250026002004
:100A600000230024002791F803C00CF00F0591F833
:100A700003C01CF0100F03D091F802C04CEA05052A
:100A800091F800C0BCF1000F31D0146800202BE0B9
:100A90004FF0010C0CFA00F3B1F800C00CEA0306A9
:100AA0009E4220D183004FF00F0C0CFA03F7BC4399
:100AB00005FA03FC4CEA040491F803C0BCF1280FCA
:100AC00006D14FF0010C0CFA00FCC2F814C00AE089
:100AD00091F803C0BCF1480F05D14FF0010C0CFA9E
:100AE00000FCC2F810C0401C0828D1D31460B1F833
:100AF00000C0BCF1FF0F34DD546800202EE000F18F
:100B0000080C4FF0010808FA0CF3B1F800C00CEA29
:100B100003069E4221D183004FF00F0C0CFA03F71D
:100B2000BC4305FA03FC4CEA040491F803C0BCF191
:100B3000280F05D100F1080C08FA0CF8C2F814804F
:100B400091F803C0BCF1480F07D100F1080C4FF039
:100B5000010808FA0CF8C2F81080401C0828CED30F
:100B60005460BDE8F0814FF6FF7101800221817071
:100B70000421C17070470246002093680B4201D0E7
:100B8000012000E0002070470146886880B270476D
:100B900002460020D3680B4201D0012000E0002073
:100BA00070470146C86880B2704701617047416173
:100BB00070470AB1016100E041617047C160704750
:100BC0004FF480320A438261816182618269826965
:100BD000704702460020424B18684FF68073184059
:100BE00040EA021008433E4B186070473D49C86117
:100BF0007047F0B50A46002300240021002500F0CC
:100C00000046B6F1004F02D1354EF16901E0344E95
:100C10007168C0F3034583B200F44016B6F5401F77
:100C200008D121F070612E4E766826F070662C4F48
:100C30007E6012E000F48016B6F5801F06D1032610
:100C400006FA05F4A14341F0706106E0460D360155
:100C500003FA06F6B14341F0706122B1460D360148
:100C600003FA06F6314300F00046B6F1004F02D118
:100C70001B4EF16101E01A4E7160F0BD30B50022EB
:100C80008B071C0F0F2303FA04F2154B08338C104B
:100C900053F824309343124C08348D1044F8253017
:100CA00023468C1053F824308C07240F00FA04F4E8
:100CB00023430B4C08348D1044F8253030BD0A49CD
:100CC0000860704700080140000C0140001001401E
:100CD0000014014000180140001C014000200140A8
:100CE0000000014000002042DC002042DD48006896
:100CF00040F00100DB49086008464068DA490840D6
:100D0000D849486008460068D8490840D549086075
:100D10000846006820F4802008600846406820F4F7
:100D2000FE0048604FF41F0088607047CD49096895
:100D300021F48031CB4A11601146096821F48021E9
:100D40001160B0F5803F03D0B0F5802F0ED106E0E2
:100D5000C449096841F48031C24A116007E0C149C1
:100D6000096841F4A021BF4A116000E000BF00BF44
:100D7000704710B501460022002300204A11012AC5
:100D800002D1B84C236806E0022A02D1B54C236A8E
:100D900001E0B44C636A01F01F02012494401C423C
:100DA00001D0012000E0002010BD38B500200090E7
:100DB0000024002500BF3120FFF7DBFF0546009827
:100DC000401C00900098B0F5A06F01D0002DF2D02B
:100DD0003120FFF7CEFF08B1012400E000242046B7
:100DE00038BD014600209F4A106820F0F80040EA14
:100DF000C100106070479E4908607047024600209D
:100E0000984B586820F47C1042EA01031843954B34
:100E10005860704796490866704701460020914A1D
:100E2000506820F003000843506070478D484068C8
:100E300000F00C007047014600208A4A506820F0FC
:100E4000F00008435060704701460020854A506812
:100E500020F4E06008435060704701460020814A5A
:100E6000506820F4605040EAC1005060704729B1DA
:100E70007C4A527A02437B4B5A7204E0794A527A96
:100E80008243784B5A7270477A490860704701462E
:100E90000020744A506820F4404008435060704776
:100EA0000021754A11706F4A82F82010012802D083
:100EB000042808D103E001216F4A117004E00521E4
:100EC0006D4A117000E000BF00BF70476B490860B9
:100ED00070476449096A0143624A11627047674971
:100EE00044390860704730B50021002200240023F7
:100EF0005C4D6D6805F00C0121B1042905D008296D
:100F000023D105E05E4D056022E05D4D05601FE0E8
:100F1000544D6D6805F47012524D6D6805F48034BF
:100F2000022505EB92421CB9564D554305600BE076
:100F30004C4D6D6815F4003F03D0524D554305608C
:100F400002E04F4D5543056002E04D4D056000BF86
:100F500000BF444D6D6805F0F00109094A4D6B5C16
:100F60000568DD4045603F4D6D6805F4E061090AA4
:100F7000454D6B5C4568DD4085603A4D6D6805F414
:100F80006051C90A404D6B5C4568DD40C560354D18
:100F90006D6805F44041890B3C4D6B5CC568B5FB41
:100FA000F3F5056130BD29B12E4A526902432D4B3C
:100FB0005A6104E02B4A526982432A4B5A617047B6
:100FC00029B1284A92690243264B9A6104E0254AD6
:100FD00092698243234B9A61704729B1214AD269B1
:100FE0000243204BDA6104E01E4AD26982431D4B62
:100FF000DA61704729B11B4AD2680243194BDA60A3
:1010000004E0184AD2688243164BDA60704729B16F
:10101000144A12690243134B1A6104E0114A12691F
:101020008243104B1A617047144940390860704779
:101030000F49C86470470B49C87170470948406A36
:1010400040F0807007494862704701460020054A19
:1010500092680A4201D0012000E000207047014957
:1010600088727047001002400000FFF8FFFFF6FE94
:1010700000004242D8004242201002408004424216
:1010800000127A0000093D002400002034000020F6
:1010900010B50446FB48844209D101218803FFF7BB
:1010A000A9FF00214FF48040FFF7A4FF32E0F6488B
:1010B000844209D101214804FFF7A9FF00214FF420
:1010C0000030FFF7A4FF25E0F048844209D1012158
:1010D0008804FFF79CFF00214FF48020FFF797FF63
:1010E00018E0EB48844209D10121C804FFF78FFFC3
:1010F00000214FF40020FFF78AFF0BE0E54884420F
:1011000008D101210805FFF782FF00214FF480106C
:10111000FFF77DFF10BD2DE9F04786B005460E466E
:101120000024A24600BFA1460027B08900B100BF3D
:101130002F462C8A4CF6FF700440F08804432C8222
:10114000AC894EF6F3100440B088318908437189A8
:1011500008430443AC81AC8A4FF6FF400440B08999
:101160000443AC8201A8FFF7BEFEC648874202D105
:10117000DDF810A001E0DDF80CA0A88910F4004F04
:1011800008D00AEBCA0000EB0A1031684900B0FB36
:10119000F1F807E00AEBCA0000EB0A103168890099
:1011A000B0FBF1F86420B8FBF0F0040120096421E1
:1011B00001FB1089A88910F4004F08D0322000EB01
:1011C000C900B0FBF1F000F00700044308E0322052
:1011D00000EB09106421B0FBF1F000F00F000443B4
:1011E0002C8106B0BDE8F0874FF416510160002154
:1011F0008180C18001810C21418100218181704762
:1012000010B502460020108A4FF2FF0318400B88E9
:101210004C8823438C882343CC8823431843108273
:1012200010BD0021018041808180C180704721B1C3
:10123000828942F40052828104E082894DF6FF7374
:101240001A4082817047F0B503460024002600252D
:101250000020A1F510676A3F00D100BF1846C1F316
:10126000421401F01F06012707FA06F5012C01D1EF
:101270000C3004E0022C01D1103000E014301AB11F
:1012800007682F43076002E00768AF430760F0BDBF
:101290001AB1838A0B43838202E0838A8B43838261
:1012A0007047028A4FF6F0731A400282028A0A439C
:1012B0000282704782894FF2FF731A4082818289CD
:1012C0000A438281704721B1828942F00202828101
:1012D00004E082894FF6FD731A4082817047028ACA
:1012E0004FF6DF731A400282028A0A430282704775
:1012F00021B1028A42F48042028204E0028A4BF663
:10130000FF731A4002827047C1F30802828070475F
:1013100001468888C0F308007047818941F00101C7
:1013200081817047028BD2B20283028B42EA012292
:1013300002837047028B02F47F420283028B0A43CE
:101340000283704721B1828A42F02002828204E047
:10135000828A4FF6DF731A408282704721B1828AF7
:1013600042F01002828204E0828A4FF6EF731A4044
:101370008282704721B1828A42F00802828204E0B0
:10138000828A4FF6F7731A408282704721B18289B0
:1013900042F40042828103E08289C2F30E0282811C
:1013A000704721B1828A42F40062828204E0828A1C
:1013B0004FF2FF731A4082827047828A4FF6FB73A6
:1013C0001A408282828A0A438282704721B1828ACD
:1013D00042F00202828204E0828A4FF6FD731A40D4
:1013E0008282704702460020B1F5007F00D100BF25
:1013F00013880B4201D0012000E00020704701F467
:101400000072B2F5007F00D100BFCA43028070476E
:1014100070B502460024002300250020A1F51066C7
:101420006A3E00D100BFC1F3421501F01F0301263F
:1014300006FA03F3012D02D19689334006E0022D0E
:1014400002D1168A334001E0968A33400C120126FD
:1014500006FA04F41688344013B10CB1012000E000
:10146000002070BD10B500220023A1F510646A3C75
:1014700000D100BF0A1201249440A3B2DC430480CF
:1014800010BD00000038014000440040004800400A
:10149000004C004000500040002044490860091DF5
:1014A0000860091D0860091D086041483F49143162
:1014B0000860704700213D498279002A3AD00A46E7
:1014C000126803689A430B461A600A1D1268036883
:1014D0009A430B1D1A60027911440A6803681A4383
:1014E0000A60324A0832126803689A432F4B083365
:1014F0001A601A1D126803689A432C4B0C331A6049
:101500004279102A0ED11A1F126803681A43274B1A
:1015100008331A601A1D126803681A43234B0C33F0
:101520001A600DE02149427911440A6803681A43A0
:101530000A6005E0027911440A6803689A430A6068
:1015400070470021016001710C21417100218171FE
:1015500070471649103109680143144A103211606E
:10156000704701460020114A143212680A4201D025
:10157000012000E0002070470C49143108607047DA
:10158000014600200022094B1B6803EA0102074BB9
:1015900014331B680B4202D00AB1012000E0002086
:1015A0007047024914310860704700000004014090
:1015B000FFFF0F0006E042F6E06100BF0A00A1F164
:1015C0000101FBD10200A0F10100F4D1704710B578
:1015D0004FF48041FE48FFF7EAFA0A20FFF7EAFFDE
:1015E0004FF48041FA48FFF7E0FA0A20FFF7E2FFE4
:1015F00010BD10B500BF4FF40051F548FFF7BBFA1E
:101600000028F8D010BD10B5922000F00FFB12207A
:1016100000F00CFB0120FFF7CDFFFFF7EAFF10BD44
:101620002DE9F041074664264FF4F078102000F0D1
:10163000FDFA00250CE0002407E005FB0641795C7B
:10164000C943C8B200F00AFB641CB442F5D36D1C58
:101650004545F0D3132000F0E9FA002508E0002406
:1016600003E0002000F0FAFA641CB442F9D36D1CC8
:101670004545F4D3122000F0D9FA0120FFF79AFF74
:10168000FFF7B7FFBDE8F0812DE9FF5F0C46154677
:101690009846009848B1002C07DBB8F1000F04DB36
:1016A000002D02DB0E98002801DABDE8FF9F04F050
:1016B000F80408F0F80804EB0800B0F5487F02DBF6
:1016C00040F21F3602E004EB0800461E0E98284444
:1016D000B0F5F07F02DB40F2DF1702E00E982844FD
:1016E000471E912000F0A2FA902000F09FFAA34636
:1016F000E11704EB1161C1F3072000F0AFFAE11725
:1017000004EB11610912A4EB0121C8B200F0A6FAA2
:10171000B346F11706EB1161C1F3072000F09EFA02
:10172000F11706EB11610912A6EB0121491EC8B29F
:1017300000F094FAAB46E91705EB1161C1F30720FD
:1017400000F08CFAE91705EB11610912A5EB0121F4
:10175000C8B200F083FABB46F91707EB1161C1F379
:10176000072000F07BFAF91707EB11610912A7EBCC
:101770000121491EC8B200F071FA102000F056FA9B
:101780004FF000091CE04FF0000A0FE0C3464FEA9B
:10179000E87108EB5171C91009FB01A20099895C3D
:1017A000C943C8B200F05AFA0AF1010A311B481CB9
:1017B000C11700EB5171BAEBE10FE7DB09F1010949
:1017C000781B401C4845DEDC00BF6EE710B5FFF714
:1017D000FEFE6420FFF7EEFE002000F027FA1F2037
:1017E00000F03CFA042000F021FA4FF49670FFF765
:1017F000E1FEFFF7FEFE502000F018FA212000F075
:101800002DFA072000F02AFA10BD10B54FF48041E0
:101810006F48FFF7CCF90A20FFF7CCFE4FF4804168
:101820006B48FFF7C2F90A20FFF7C4FE002000F062
:10183000FDF91F2000F012FA502000F0F7F91020F7
:1018400000F00CFA072000F009FA042000F0EEF98D
:101850006420FFF7AFFEFFF7CCFE062000F0E6F9AC
:10186000272000F0FBF9272000F0F8F9182000F0FD
:10187000F5F9172000F0F2F9E02000F0D7F9022086
:1018800000F0ECF9E52000F0D1F95A2000F0E6F97B
:1018900010BD10B54FF480414D48FFF788F90A207C
:1018A000FFF788FE4FF480414948FFF77EF90A2090
:1018B000FFF780FE002000F0B9F91F2000F0CEF9FC
:1018C000042000F0B3F96420FFF774FEFFF791FEE7
:1018D000E02000F0ABF9022000F0C0F9E52000F0B4
:1018E000A5F96E2000F0BAF910BD2DE9FC5F0446A1
:1018F0000D4691461E46DDF830A004EB0A00A0F12B
:10190000010BA819401E009006FB0AF0C0080190C8
:10191000502000F08BF9A92000F0A0F9072000F07A
:101920009DF9912000F082F9902000F07FF9A04607
:10193000E11704EB1161C1F3072000F08FF9E11703
:1019400004EB11610912A4EB0121C8B200F086F981
:10195000CBF3072000F082F9ABF10101C8B200F02F
:101960007DF9A846E91705EB1161C1F3072000F0E6
:1019700075F9E91705EB11610912A5EB0121C8B250
:1019800000F06CF90098C0F3072000F067F90099A7
:10199000491EC8B200F062F9012000F05FF913207F
:1019A00000F044F9002704E019F8070000F056F9A8
:1019B0007F1C01988742F7D3122000F037F90A20E4
:1019C000FFF7F8FDFFF715FE922000F02FF901E078
:1019D00000180140BDE8FC9F10B5FFF7F8FD04209A
:1019E00000F024F9FFF705FE002000F01FF90F209A
:1019F00000F034F9502000F019F9202000F02EF901
:101A0000072000F02BF9102000F010F9002403E06B
:101A1000002000F023F9641C4BF680308442F7D399
:101A2000132000F003F9002403E0002000F016F971
:101A3000641C4BF680308442F7D310BD10B55020A3
:101A400000F0F4F8F72000F009F9022000F0EEF8B9
:101A5000FFF7CFFD6420FFF7ADFD072000F0E6F8AB
:101A6000A52000F0FBF810BD70B50546102000F071
:101A7000DDF8002403E0002000F0F0F8641C4BF6D1
:101A800080308442F7D3132000F0D0F8002403E024
:101A9000285D00F0E3F8641C4BF680308442F7D3F5
:101AA000122000F0C3F80120FFF784FDFFF7A1FD2D
:101AB00070BD70B50546102000F0B8F8002403E0B2
:101AC000FF2000F0CBF8641C4BF680308442F7D343
:101AD000132000F0ABF8002403E0285D00F0BEF80E
:101AE000641C4BF680308442F7D3122000F09EF83D
:101AF0000120FFF75FFDFFF77CFD70BD10B51020E2
:101B000000F094F8002403E0002000F0A7F8641C23
:101B10004BF680308442F7D3132000F087F800247E
:101B200003E0002000F09AF8641C4BF680308442F9
:101B3000F7D3122000F07AF80120FFF73BFDFFF702
:101B400058FD10BD08B501216020FFF739FA4FF4A8
:101B5000E060ADF8000010208DF8030002208DF841
:101B6000020069464948FEF775FF4FF44040ADF862
:101B7000000010208DF8030002208DF80200694655
:101B80004348FEF767FF4FF40050ADF800004820CF
:101B90008DF8030002208DF8020069463C48FEF7EC
:101BA00059FF4FF48050ADF8000010208DF803006D
:101BB00002208DF8020069463548FEF74BFF08BD4C
:101BC00000BF0100A0F10102D0B2FAD1704770B598
:101BD00004460120FFF7F4FF002524E04FF40071D4
:101BE0002A48FEF7E4FF0120FFF7EAFF14F0800F18
:101BF00005D04FF480612548FEF7D7FF04E04FF48D
:101C000080612248FEF7D3FF6006040E0120FFF733
:101C1000D7FF4FF400711D48FEF7C7FF0120FFF703
:101C2000CFFF681CC5B2082DD8DB70BD10B50446C7
:101C30000120FFF7C5FF4FF480711448FEF7B7FF8E
:101C40004FF400411248FEF7B2FF2046FFF7BFFFF6
:101C50004FF480710D48FEF7A8FF10BD10B5044683
:101C60000120FFF7ADFF4FF480710848FEF79FFF9A
:101C70004FF400410648FEF798FF2046FFF7A7FF04
:101C80004FF480710148FEF790FF10BD0014014031
:101C90000018014008B509E00021009102E0009918
:101CA000491C00910099B1F5FA7FF8D30100A0F129
:101CB0000100F1D108BD10B54FF48051FC48FEF78A
:101CC00076FF4FF48041FA48FEF771FF6420FFF77A
:101CD000E1FF4FF48051F648FEF767FF3220FFF72F
:101CE000D9FF10BD2DE9F04105460E4617464FF0CD
:101CF000010800F0C7FB0121BA2000F075FCB8B95B
:101D00002812012100F070FC90B9E8B2012100F026
:101D10006BFC68B9002408E0385D012100F064FC28
:101D200010B14FF0000802E0641CB442F4D300BFCD
:101D300000F0C9FB4046BDE8F0812DE9F0410546C1
:101D40000E4617464FF0000800F09CFB0121BA2018
:101D500000F04AFC38BB2812012100F045FC10BB02
:101D6000E8B2012100F040FCE8B900F0ACFB00F063
:101D700089FB0121BB2000F037FCA0B900240CE056
:101D8000701EA04204D1002000F066FC385503E02C
:101D9000012000F061FC3855641CB442F0D300F01F
:101DA00092FB4FF0010800F08EFB4046BDE8F08149
:101DB0001FB5002000900190029003906A46102108
:101DC000C802FFF7BAFF0A22BAA1684600F02EFD4A
:101DD00018B90020BA49087302E00120B849087315
:101DE0001FBD1FB501210820FFF7EAF84FF480401E
:101DF000ADF8000048208DF803006946AC48FEF7B6
:101E000029FE0E210120FEF739FF4FF48040029099
:101E100000208DF80C000C208DF80D0001208DF8AD
:101E20000E0002A8FFF746FB4FF48040FFF791FB3E
:101E30004FF4A060FEF740FD28208DF8040002203A
:101E40008DF8050000208DF8060001208DF80700B0
:101E500001A8FEF736FD1FBD10B504464FF48041C2
:101E60009348FEF7A4FE642104FB01F0FFF712FF84
:101E7000FFF7B7FF10BD38B5AA208DF800006A46FD
:101E8000012148F24000FFF72DFF0446AA208DF8FB
:101E900000006A46012148F24100FFF723FF044693
:101EA0000CB9002038BD00208DF800006A460121E1
:101EB0004FF48340FFF716FF04460CB90020F1E70A
:101EC0006A46012148F24100FFF737FF04460CB98A
:101ED0000020E7E79DF80000AA2801D10020E1E7F3
:101EE000AA208DF800006A46012148F24000FFF761
:101EF000F9FEAA208DF800006A46012148F241004F
:101F0000FFF7F0FE0120CDE77CB5044600200090ED
:101F100001906A46062148F24010FFF70EFF054681
:101F20000DB928467CBD34B19DF804009DF805101C
:101F300040EA012020800120F4E77FB50025002041
:101F400000900190029003903220FEF7B7FB6A46A2
:101F5000012148F24A10FFF7F0FE064616B90020AC
:101F600004B070BD9DF80000062801DD0020F7E7F1
:101F7000F021544800F0CBFCE4225349514800F0D2
:101F800081FC0025002404E04E48005D2844C5B2D1
:101F9000641CE42CF8DBE843401C4A4981F8E40067
:101FA0000120DDE770B5002500BF0AE0464AE421C4
:101FB00048F24700FFF796FE0446012C00D102E0EC
:101FC0006D1C052DF2DB00BF204670BD2DE9F041F0
:101FD0000746002500264FF492763046384908809F
:101FE00000BF04E0002039494855681C85B23448D8
:101FF0000088A842F6DC0121701E344A1154314693
:1020000049F6D010FFF76EFE044614B90020BDE873
:10201000F0810120FBE77CB5002400250020009022
:10202000019000BF06E050200DF804001DF80400E8
:102030000544641C052CF6D36842C0B28DF8050037
:102040006A46062148F22000FFF74CFE08B900203E
:102050007CBD0120FCE730B58FB0002504AA0A2121
:1020600048F24E10FFF769FE044604B990E19DF86E
:102070001050002D61D11248007B01285DD1002055
:102080008DF800006A46012148F24300FFF755FE33
:10209000044604B97CE19DF8000000F00F0001281F
:1020A00016D0022822D0042830D0FF2842D142E0A6
:1020B000000C0140474F4F4449585F4754390000D6
:1020C000000C0020EC09002039000020DC0A002070
:1020D000FFF768FF044644B100208DF800006A460F
:1020E000012148F24300FFF7FDFD25E00020FFF746
:1020F0006DFF0446012C08D100208DF800006A46CF
:10210000012148F24300FFF7EDFD15E00120AA4947
:102110004873FFF780FF044644B100208DF80000AB
:102120006A46012148F24300FFF7DCFD0120A34984
:10213000087001E000BF00BF00BF15F0800F00D1A4
:1021400026E105F00F009E49087008460078052832
:1021500000DD1DE19A48007801287CDB9848007872
:10216000C10004AA48F24E10FFF7E7FD0446944868
:102170000078062870D2DFE800F0E6B1904527032A
:102180008F4801788FA000F0D5FA91488289418864
:1021900090A000F0CFFA8E48C289818891A000F00B
:1021A000C9FA8B48028AC18892A000F0C3FA884815
:1021B000428A018993A000F0BDFA8548828A41894C
:1021C00094A000F0B7FA00BF7D4801787DA000F030
:1021D000B1FA7F48828941887EA000F0ABFA7C4842
:1021E000C28981887FA000F0A5FA7948028AC18857
:1021F00080A000F09FFA7648428A018981A000F011
:1022000099FA00BF9DF814009DF8151040EA0120CE
:102210006F4988819DF812009DF8131040EA012053
:102220006B4948809DF81C009DF81D1040EA012173
:102230006748C1819DF81A009DF81B1040EA0121F2
:10224000634881809DF824009DF8251040EA012113
:102250005F48018201E07FE075E09DF822009DF873
:10226000231040EA01215A48C1805548017855A001
:1022700000F060FA56488289418856A000F05AFA68
:102280005348C289818857A000F054FA5048028A06
:10229000C18858A000F04EFA00BF9DF814009DF8C8
:1022A000151040EA01204A4988819DF812009DF8E6
:1022B000131040EA0120464948809DF81C009DF813
:1022C0001D1040EA01214248C1819DF81A009DF885
:1022D0001B1040EA01213E48818000BF9DF812009A
:1022E0009DF8131040EA01204E490988884219D010
:1022F0009DF814009DF8151040EA01204A4909880C
:1023000088420FD09DF814009DF8151040EA012076
:102310002F4988819DF812009DF8131040EA012092
:102320002B4948809DF814009DF8151040EA0120C3
:102330003D4908809DF812009DF8131040EA0120E5
:102340003849088000E000BF00BF2148007840F015
:1023500080001F4908701AE01D48007810F0800FB7
:1023600006D01B48007820F080001949087008E06A
:1023700000201749488088810846007800F0E00076
:1023800008704FF6FF70274908802749088000BF72
:10239000002000900190029003906A46012148F2CB
:1023A0004E10FFF79FFC04460FB030BD10B500F093
:1023B0008FF9012010BD0000000C00203800002023
:1023C0001D010020636F756E743A25640D0A0000CC
:1023D000680C002078303A25642C79303A25640D59
:1023E0000A00000078313A25642C79313A25640DD1
:1023F0000A00000078323A25642C79323A25640DBF
:102400000A00000078333A25642C79333A25640DAC
:102410000A00000078343A25642C79343A25640D9A
:102420000A0000001E0100202001002008B54FF422
:102430008060ADF8000010208DF8030003208DF8B7
:1024400002006946B848FEF705FB08BD08B54FF421
:102450008060ADF8000048208DF8030003208DF85F
:1024600002006946B048FEF7F5FA08BD014604E0EF
:10247000002000E0401C0528FCDB0A00A1F101015E
:10248000F6D1704710B5FFF7D1FF4FF48061A64831
:10249000FEF78BFB4FF48061A448FEF786FB052016
:1024A000FFF7E4FF4FF480619F48FEF780FB0520B3
:1024B000FFF7DCFF4FF480619C48FEF778FB0520B6
:1024C000FFF7D4FF10BD10B54FF480619748FEF7B9
:1024D0006EFB0520FFF7CAFF4FF480619248FEF7BC
:1024E00066FB0520FFF7C2FF4FF480618F48FEF7BF
:1024F0005CFB0520FFF7BAFF4FF480618A48FEF7C6
:1025000054FB0520FFF7B2FF10BD10B5FFF78EFF9B
:102510004FF480618448FEF74AFB0520FFF7A6FFD1
:102520004FF480618148FEF740FB0520FFF79EFFD6
:102530004FF480617D48FEF73AFB0520FFF796FFD8
:1025400010BD10B54FF480617848FEF730FBFFF7FF
:102550006DFF0520FFF78AFF4FF480617248FEF798
:1025600024FB0520FFF782FF4FF480616F48FEF7E0
:102570001CFB0520FFF77AFF4FF480616B48FEF7E4
:1025800016FB0520FFF772FF10BD10B54FF48061F8
:102590006648FEF70CFB0520FFF768FF4FF48061EB
:1025A0006148FEF702FB0520FFF760FF4FF48061F2
:1025B0005E48FEF7FAFAFFF749FF0520FFF756FFDE
:1025C00059480830006810F4806F06D04FF48061DD
:1025D0005648FEF7ECFA012010BD4FF480615348D5
:1025E000FEF7E5FA0020F7E770B504460D46FFF761
:1025F0001DFF002628E04FF480614C48FEF7D7FA13
:102600000520FFF733FF14F0800F05D04FF48061F1
:102610004548FEF7CAFA04E04FF480614248FEF7ED
:10262000C6FA0520FFF722FF6006040E4FF4806112
:102630003E48FEF7BAFA0520FFF718FF4FF4806115
:102640003A48FEF7B4FA761C082ED4D315B1FFF73A
:102650009CFF70BD0020FCE770B505464FF480611B
:102660003148FEF7A2FA4FF480613048FEF79FFA36
:102670000520FFF7FBFEFFF7E9FE00261EE06006DF
:10268000040E4FF480612948FEF78FFA0520FFF70A
:10269000EDFE4FF480612448FEF76DFA012802D167
:1026A00044F0010401E024F001044FF480611F486C
:1026B000FEF77DFA0520FFF7D9FE761C082EDED343
:1026C00015B1FFF722FF01E0FFF73BFF204670BD89
:1026D00008B501214820FEF773FC4FF48060ADF887
:1026E000000010208DF8030003208DF802006946D9
:1026F0000E48FEF7AFF94FF480610C48FEF757FA29
:102700004FF48060ADF8000010208DF80300032026
:102710008DF8020069460448FEF79CF94FF4806189
:102720000148FEF744FA08BD000C014000180140C2
:10273000704700000FB4044910B503AA029800F0D6
:102740006DF910BC5DF814FB200000202DE9F0416C
:102750000E460446002020622046E168884730B3D8
:10276000252805D0D4E901219047206A401CF2E7D2
:10277000E168204600278847050018D0A5F14100F0
:10278000192802D820354FF40067324629462046E2
:102790002760FDF707FD40B1012804D0F61D26F0A3
:1027A00007060836D8E7361DD6E72846DAE7206A56
:1027B000BDE8F0812DE9F041064600241068752936
:1027C000314616A511D0AFF30080002803DAC0F11E
:1027D000000013A507E031688A0701D511A502E0C2
:1027E000490704D510A5012401E0AFF300800021C2
:1027F0000A2306F1240707E0B0FBF3F203FB120003
:10280000303078541046491C0028F5D123462A461A
:102810003046BDE8F04100F0A5B80000000000001F
:102820002D0000002B0000002000000040EA010302
:1028300010B59B070FD1042A0DD310C808C9121F69
:102840009C42F8D020BA19BA884201D9012010BDA3
:102850004FF0FF3010BD1AB1D30703D0521C07E070
:10286000002010BD10F8013B11F8014B1B1B07D1D4
:1028700010F8013B11F8014B1B1B01D1921EF1D145
:10288000184610BD032A40F2308010F0030C00F00F
:10289000158011F8013BBCF1020F624498BF11F89A
:1028A00001CB00F8013B38BF11F8013BA2F1040253
:1028B00098BF00F801CB38BF00F8013B11F00303CB
:1028C00000F0BE80083AC0F0088051F8043B083A96
:1028D00051F804CBA0E80810F5E7121D5CBF51F8D1
:1028E000043B40F8043BAFF30080D20724BF11F84B
:1028F000013B11F801CB48BF11F8012B24BF00F8B0
:10290000013B00F801CB48BF00F8012B70474FF0A6
:10291000000200B5134694469646203922BFA0E82F
:102920000C50A0E80C50B1F12001BFF4F7AF09073B
:1029300028BFA0E80C5048BF0CC05DF804EB89002C
:1029400028BF40F8042B08BF704748BF20F8022B6F
:1029500011F0804F18BF00F8012B70477047704787
:10296000704770472DE9F0470D4699469246044658
:1029700000F124080168880604D5E06921F01001FF
:10298000216000E00120A84202DDA0EB050700E085
:102990000027A16907EB050202EB0900A1EB00008B
:1029A000A0612078C00602D42046AFF30080002644
:1029B00008E0D4E901211AF806009047206A401C7B
:1029C000761C20624E45F4DB2078C0060AD52046EE
:1029D000AFF3008006E0D4E9012130209047206A5F
:1029E000401C2062381EA7F10107F4DC07E0D4E99F
:1029F000012118F805009047206A401C2062281E1B
:102A0000A5F10105F3DC2046AFF300802078000635
:102A100002D50220BDE8F0870120FBE7074B70B527
:102A20000D467B4400F043F80446284600F052F877
:102A300010B14FF0FF3070BD204670BD19DDFFFFB3
:102A400010B5203AC0F00B80B1E81850203AA0E849
:102A50001850B1E81850A0E81850BFF4F5AF5FEA7D
:102A6000027C24BFB1E81850A0E8185044BF18C930
:102A700018C0BDE810405FEA827C24BF51F8043BD7
:102A800040F8043B08BF7047D20728BF31F8023B2B
:102A900048BF11F8012B28BF20F8023B48BF00F8BF
:102AA000012B704701694A1C02610878704700B524
:102AB0008FB0CDE901310021059105497944CDE977
:102AC000031011466846FFF741FE0FB000BD00003D
:102AD000E5FFFFFF007B00F080007047754600F0C7
:102AE00029F8AE4605006946534620F007008546A2
:102AF00018B020B5FDF7CEFEBDE820404FF000062F
:102B00004FF000074FF000084FF0000B21F00701D5
:102B1000AC46ACE8C009ACE8C009ACE8C009ACE818
:102B2000C0098D4670470446AFF300802046FDF78C
:102B30004BFB000000487047800C0020FFFFFFFFA8
:102B4000FFFFFFFFFFFFFFFFFFFFFFFFFFFFFFFF95
:102B5000FFFFFFFFFFFFFFFFFFFFFFFFFFFFFFFF85
:102B6000FFFFFFFFFFFFFFFFFFFFFFFFFFFFFFFF75
:102B7000FFFFFFFFFFFFFFFFFFFFFFFFFFFFFFFF65
:102B8000FFFFFFFFFFFFFFFFFFFFFFFFFFFFFFFF55
:102B9000FFFFFFFFFFFFFFFFFFFFFFFFFFFFE0075C
:102BA000FFFFFFFF8001FFFFFFFE03C07FFFFFFC71
:102BB00007F03FFFFFF80FF81FFFFFF01FFC0FFFAC
:102BC000FFE03FFC07FFFFC07FFE03FFFFC07FFE6B
:102BD00003FFFF80FFFF01FFFF00FFFF01FFFF0179
:102BE000FFFF80FFFE01FFFF80FFFE01FFFF807FF0
:102BF000FE03FFFF807FFC03FFFFC03FFC03FFFFDE
:102C0000C03FFC03FFFFC03FF803FFFFC03FF807D2
:102C1000FFFFC01FF807FFFFE01FF807FFFFE01FDF
:102C2000F807FFFFE01FF007FFFFE01FF007FFFFBF
:102C3000E01FF007FFFFE00FF007FFFFE00FF007D6
:102C4000FFFFE00FF00FFFFFE00FF00FFFFFE00FBF
:102C5000F00FFFFFE00FF00FFFFFE00FF00FFFFF9F
:102C6000E00FF00FFFFFE00FF00FFFFFE00FF00F9E
:102C7000FFFFE00FF00FFFFFE00FF00FFFFFE00F8F
:102C8000F007FFFFE00FF007FFFFE00FF007FFFF87
:102C9000E01FF007FFFFE01FF007FFFFE01FF8074E
:102CA000FFFFE01FF807FFFFE01FF807FFFFE01F2F
:102CB000F807FFFFC01FF803FFFFC03FFC03FFFF43
:102CC000C03FFC03FFFFC03FFC03FFFFC07FFE03CC
:102CD000FFFF807FFE01FFFF807FFE01FFFF80FF7F
:102CE000FF01FFFF80FFFF00FFFF01FFFF80FFFFED
:102CF00001FFFF807FFE03FFFFC07FFE03FFFFE0B9
:102D00003FFC07FFFFF01FFC0FFFFFF81FF81FFF3E
:102D1000FFFC07F03FFFFFFE03C07FFFFFFF8001C6
:102D2000FFFFFFFFE007FFFFFFFFFFFFFFFFFFFFCA
:102D3000FFFFFFFFFFFFFFFFFFFFFFFFFFFFFFFFA3
:102D4000FFFFFFFFFFFFFFFFFFFFFFFFFFFFFFFF93
:102D5000FFFFFFFFFFFFFFFFFFFFFFFFFFFFFFFF83
:102D6000FFFFFFFFFFFFFFFFFFFFFFFFFFFFFFFF73
:102D7000FFFFFFFFFFFFFFFFFFFFFFFFFFFFFFFF63
:102D8000FFFFFFFFFFFFFFFFFFFFFFFFFFFFFFFF53
:102D9000FFFFFFFFFFFFFFFFFFFFFFFFFFFFFFFF43
:102DA000FFFFFFFFFFFFFFFFFFFFFFFFFFFFFFFF33
:102DB000FFFFFFFFFFFFFFFFFFFFFFFFFFFFFFFF23
:102DC000FFFFFFFFFFFFFFFFFFFFFFFFFFFFFFFF13
:102DD000FFFFFFFFFFFFFFFFFFFFFFFFFFFFFFFF03
:102DE000FFFFFFFFFFFFFFFFFFFFFFFFFFFFFFFFF3
:102DF000FFFFFFFFFFFFFFFFFFFFFFFFFFFFFFFFE3
:102E0000FFFFFFFFFFFFFFFFFFFFFFFFFFFFFF8F42
:102E1000FFFFFFFFFF0FFFFFFFFFFE0FFFFFFFFFA3
:102E2000FC0FFFFFFFFFF80FFFFFFFFFC00FFFFFCB
:102E3000FFC0000FFFFFFFC0000FFFFFFFFFE00F0D
:102E4000FFFFFFFFF00FFFFFFFFFF80FFFFFFFFF88
:102E5000F80FFFFFFFFFF80FFFFFFFFFF80FFFFF67
:102E6000FFFFF80FFFFFFFFFF80FFFFFFFFFF80F57
:102E7000FFFFFFFFF80FFFFFFFFFF80FFFFFFFFF50
:102E8000F80FFFFFFFFFF80FFFFFFFFFF80FFFFF37
:102E9000FFFFF80FFFFFFFFFF80FFFFFFFFFF80F27
:102EA000FFFFFFFFF80FFFFFFFFFF80FFFFFFFFF20
:102EB000F80FFFFFFFFFF80FFFFFFFFFF80FFFFF07
:102EC000FFFFF80FFFFFFFFFF80FFFFFFFFFF80FF7
:102ED000FFFFFFFFF80FFFFFFFFFF80FFFFFFFFFF0
:102EE000F80FFFFFFFFFF80FFFFFFFFFF80FFFFFD7
:102EF000FFFFF80FFFFFFFFFF80FFFFFFFFFF80FC7
:102F0000FFFFFFFFF80FFFFFFFFFF80FFFFFFFFFBF
:102F1000F80FFFFFFFFFF80FFFFFFFFFF80FFFFFA6
:102F2000FFFFF80FFFFFFFFFF80FFFFFFFFFF80F96
:102F3000FFFFFFFFF80FFFFFFFFFF80FFFFFFFFF8F
:102F4000F80FFFFFFFFFF80FFFFFFFFFF80FFFFF76
:102F5000FFFFF80FFFFFFFFFF80FFFFFFFFFF80F66
:102F6000FFFFFFFFF80FFFFFFFFFF00FFFFFFFFF67
:102F7000F007FFFFFFFFF007FFFFFFFFE003FFFF8A
:102F8000FFFF8000FFFFFFC0000001FFFFC0000047
:102F900001FFFFFFFFFFFFFFFFFFFFFFFFFFFFFF3F
:102FA000FFFFFFFFFFFFFFFFFFFFFFFFFFFFFFFF31
:102FB000FFFFFFFFFFFFFFFFFFFFFFFFFFFFFFFF21
:102FC000FFFFFFFFFFFFFFFFFFFFFFFFFFFFFFFF11
:102FD000FFFFFFFFFFFFFFFFFFFFFFFFFFFFFFFF01
:102FE000FFFFFFFFFFFFFFFFFFFFFFFFFFFFFFFFF1
:102FF000FFFFFFFFFFFFFFFFFFFFFFFFFFFFFFFFE1
:10300000FFFFFFFFFFFFFFFFFFFFFFFFFFFFFFFFD0
:10301000FFFFFFFFFFFFFFFFFFFFFFFFFFFFFFFFC0
:10302000FFFFFFFFFFFFFFFFFFFFFFFFFFFFFFFFB0
:10303000FFFFFFFFFFFFFFFFFFFFFFFFFFFFFFFFA0
:10304000FFFFFFFFFFFFFFFFFFFFFFFFFFFFFFFF90
:10305000FFFFFFFFFFFFFFFFFFFFFFFFFFFFFFFF80
:10306000FFFFFFFFFFFFFFFFFFFFFFFFFFFFFFFF70
:10307000FFFFFFFFFFFFFFFFFFFFFFFFFFFFE0037B
:10308000FFFFFFFF00007FFFFFF80FC01FFFFFF0F3
:103090003FF807FFFFC0FFFC03FFFF81FFFE01FFBA
:1030A000FF03FFFF01FFFF03FFFF00FFFE07FFFF1E
:1030B00080FFFE07FFFF807FFC07FFFF807FFC078C
:1030C000FFFFC03FFC07FFFFC03FF807FFFFC03F07
:1030D000F803FFFFC03FF803FFFFC03FF801FFFF09
:1030E000C03FF801FFFFC03FF801FFFFC03FFC01F8
:1030F000FFFFC03FFC01FFFFC07FFF03FFFF807F9A
:10310000FFFFFFFF807FFFFFFFFF80FFFFFFFFFF4D
:1031100000FFFFFFFFFF00FFFFFFFFFE01FFFFFFBC
:10312000FFFE03FFFFFFFFFC03FFFFFFFFFC07FFA6
:10313000FFFFFFF80FFFFFFFFFF01FFFFFFFFFE0A4
:103140003FFFFFFFFFE07FFFFFFFFFC0FFFFFFFF2D
:10315000FF81FFFFFFFFFF03FFFFFFFFFE07FFFFF2
:10316000FFFFFC0FFFFFFFFFF81FFFFFFFFFF03F18
:10317000FFFFFFFFE07FFFFFFFFFC0FFFFFFFFFF3D
:1031800081FFFFFFFFFF03FFFFFFFFFE07FFFFFFC2
:10319000FFFE0FFFFFFFFFFC1FFFFFFFFFF83FFFDA
:1031A000FE1FFFF07FFFFE1FFFE0FFFFFE3FFFC09F
:1031B000FFFFFC3FFF81FFFFFC3FFF83FFFFFC3F62
:1031C000FF07FFFFF83FFE0FFFFFF83FFC1FFFFF69
:1031D000F03FFC1FFFFFE07FF83FFFFF807FF00024
:1031E0000000007FF0000000007FF0000000007F82
:1031F000F0000000007FF0000000007FF000000001
:10320000007FFFFFFFFFFFFFFFFFFFFFFFFFFFFF4D
:10321000FFFFFFFFFFFFFFFFFFFFFFFFFFFFFFFFBE
:10322000FFFFFFFFFFFFFFFFFFFFFFFFFFFFFFFFAE
:10323000FFFFFFFFFFFFFFFFFFFFFFFFFFFFFFFF9E
:10324000FFFFFFFFFFFFFFFFFFFFFFFFFFFFFFFF8E
:10325000FFFFFFFFFFFFFFFFFFFFFFFFFFFFFFFF7E
:10326000FFFFFFFFFFFFFFFFFFFFFFFFFFFFFFFF6E
:10327000FFFFFFFFFFFFFFFFFFFFFFFFFFFFFFFF5E
:10328000FFFFFFFFFFFFFFFFFFFFFFFFFFFFFFFF4E
:10329000FFFFFFFFFFFFFFFFFFFFFFFFFFFFFFFF3E
:1032A000FFFFFFFFFFFFFFFFFFFFFFFFFFFFFFFF2E
:1032B000FFFFFFFFFFFFFFFFFFFFFFFFFFFFFFFF1E
:1032C000FFFFFFFFFFFFFFFFFFFFFFFFFFFFFFFF0E
:1032D000FFFFFFFFFFFFFFFFFFFFFFFFFFFFFFFFFE
:1032E000FFFFFFFFFFFFFFFFFFFFFFFFFFFFC00F1D
:1032F000FFFFFFFC0001FFFFFFF01F007FFFFFE06B
:10330000FFE03FFFFFC1FFF01FFFFF83FFF80FFF4C
:10331000FF03FFFC07FFFE03FFFC03FFFE03FFFEAE
:1033200003FFFC03FFFE01FFFC03FFFF01FFFC03A3
:10333000FFFF00FFFC01FFFF00FFFC01FFFF00FF9C
:10334000FC01FFFF00FFFC01FFFF00FFFE03FFFF8A
:1033500000FFFF03FFFF00FFFFFFFFFF00FFFFFF76
:10336000FFFF00FFFFFFFFFF01FFFFFFFFFE01FF69
:10337000FFFFFFFE01FFFFFFFFFE03FFFFFFFFFC5C
:1033800007FFFFFFFFF807FFFFFFFFF00FFFFFFF43
:10339000FFE01FFFFFFFFFC07FFFFFFFFE01FFFFFA
:1033A000FFFFC007FFFFFFFFC001FFFFFFFFFF00A0
:1033B0007FFFFFFFFFE01FFFFFFFFFF80FFFFFFF93
:1033C000FFFC07FFFFFFFFFE03FFFFFFFFFF01FF03
:1033D000FFFFFFFF00FFFFFFFFFF80FFFFFFFFFF7B
:1033E000807FFFFFFFFFC07FFFFFFFFFC03FFFFFAA
:1033F000FFFFC03FFFFFFFFFC03FFFFFFFFFC01FFA
:10340000FFFFFFFFC01FFFFFFFFFC01FFF07FFFF02
:10341000C01FFE03FFFFC01FFC03FFFFC01FF8011A
:10342000FFFFC03FF801FFFFC03FF801FFFFC03FB3
:10343000F801FFFFC03FF803FFFF807FF803FFFFA5
:10344000807FFC03FFFF80FFFC03FFFF01FFFE0303
:10345000FFFE03FFFF03FFFE03FFFF81FFFC07FFEB
:10346000FFC0FFF01FFFFFF01F803FFFFFFC0000C9
:10347000FFFFFFFF800FFFFFFFFFFFFFFFFFFFFFCB
:10348000FFFFFFFFFFFFFFFFFFFFFFFFFFFFFFFF4C
:10349000FFFFFFFFFFFFFFFFFFFFFFFFFFFFFFFF3C
:1034A000FFFFFFFFFFFFFFFFFFFFFFFFFFFFFFFF2C
:1034B000FFFFFFFFFFFFFFFFFFFFFFFFFFFFFFFF1C
:1034C000FFFFFFFFFFFFFFFFFFFFFFFFFFFFFFFF0C
:1034D000FFFFFFFFFFFFFFFFFFFFFFFFFFFFFFFFFC
:1034E000FFFFFFFFFFFFFFFFFFFFFFFFFFFFFFFFEC
:1034F000FFFFFFFFFFFFFFFFFFFFFFFFFFFFFFFFDC
:10350000FFFFFFFFFFFFFFFFFFFFFFFFFFFFFFFFCB
:10351000FFFFFFFFFFFFFFFFFFFFFFFFFFFFFFFFBB
:10352000FFFFFFFFFFFFFFFFFFFFFFFFFFFFFFFFAB
:10353000FFFFFFFFFFFFFFFFFFFFFFFFFFFFFFFF9B
:10354000FFFFFFFFFFFFFFFFFFFFFFFFFFFFFFFF8B
:10355000FFFFFFFFFFFFFFFFFFFFFFFFFFFFFFFF7B
:10356000FFFFFFFFFFF81FFFFFFFFFF81FFFFFFF39
:10357000FFF01FFFFFFFFFF01FFFFFFFFFE01FFF38
:10358000FFFFFFC01FFFFFFFFFC01FFFFFFFFF8008
:103590001FFFFFFFFF001FFFFFFFFF001FFFFFFFD9
:1035A000FE001FFFFFFFFE101FFFFFFFFC101FFFAD
:1035B000FFFFF8301FFFFFFFF8701FFFFFFFF070E5
:1035C0001FFFFFFFE0F01FFFFFFFE1F01FFFFFFF06
:1035D000C1F01FFFFFFF83F01FFFFFFF83F01FFFFE
:1035E000FFFF07F01FFFFFFF0FF01FFFFFFE0FF0B1
:1035F0001FFFFFFC1FF01FFFFFFC3FF01FFFFFF846
:103600003FF01FFFFFF07FF01FFFFFF07FF01FFF75
:10361000FFE0FFF01FFFFFE1FFF01FFFFFC1FFF022
:103620001FFFFF83FFF01FFFFF87FFF01FFFFF0754
:10363000FFF01FFFFE0FFFF01FFFFE1FFFF01FFF39
:10364000FC1FFFF01FFFFC3FFFF01FFFF83FFFF0E4
:103650001FFFF07FFFF01FFFF0FFFFF01FFFE0FFF5
:10366000FFF01FFFE00000000007E000000000077F
:10367000FFFFFFF01FFFFFFFFFF01FFFFFFFFFF047
:103680001FFFFFFFFFF01FFFFFFFFFF01FFFFFFF08
:10369000FFF01FFFFFFFFFF01FFFFFFFFFF01FFF07
:1036A000FFFFFFF01FFFFFFFFFF01FFFFFFFFFF017
:1036B0001FFFFFFFFFF01FFFFFFFFFF01FFFFFFFD8
:1036C000FFF01FFFFFFFFFE00FFFFFFFFFE00FFF17
:1036D000FFFFFFC007FFFFFFC000000FFFFFC0009C
:1036E000000FFFFFC000000FFFFFFFFFFFFFFFFF06
:1036F000FFFFFFFFFFFFFFFFFFFFFFFFFFFFFFFFDA
:10370000FFFFFFFFFFFFFFFFFFFFFFFFFFFFFFFFC9
:10371000FFFFFFFFFFFFFFFFFFFFFFFFFFFFFFFFB9
:10372000FFFFFFFFFFFFFFFFFFFFFFFFFFFFFFFFA9
:10373000FFFFFFFFFFFFFFFFFFFFFFFFFFFFFFFF99
:10374000FFFFFFFFFFFFFFFFFFFFFFFFFFFFFFFF89
:10375000FFFFFFFFFFFFFFFFFFFFFFFFFFFFFFFF79
:10376000FFFFFFFFFFFFFFFFFFFFFFFFFFFFFFFF69
:10377000FFFFFFFFFFFFFFFFFFFFFFFFFFFFFFFF59
:10378000FFFFFFFFFFFFFFFFFFFFFFFFFFFFFFFF49
:10379000FFFFFFFFFFFFFFFFFFFFFFFFFFFFFFFF39
:1037A000FFFFFFFFFFFFFFFFFFFFFFFFFFFFFFFF29
:1037B000FFFFFFFFFFFFFFFFFFFFFFFFFFFFFFFF19
:1037C000FFFFFFFFFFFFFFFFFFFFFFFFFFFFFFFF09
:1037D000FFFFFF800000003FFF800000007FFF80B0
:1037E0000000007FFF800000007FFF800000007F5E
:1037F000FF87FFFFFFFFFF87FFFFFFFFFF87FFFF41
:10380000FFFFFF87FFFFFFFFFF87FFFFFFFFFF8730
:10381000FFFFFFFFFF87FFFFFFFFFF87FFFFFFFFA8
:10382000FF87FFFFFFFFFF87FFFFFFFFFF87FFFF10
:10383000FFFFFF07FFFFFFFFFF07FFFFFFFFFF0780
:10384000FFFFFFFFFF07FFFFFFFFFF07FFFFFFFF78
:10385000FF0FFFFFFFFFFF0FFFFFFFFFFF0FF00155
:10386000FFFFFF0F80007FFFFF0E00001FFFFF0C18
:1038700000000FFFFF0807E007FFFF003FF803FF0E
:10388000FF00FFFC01FFFF01FFFE00FFFF03FFFF42
:1038900000FFFF03FFFF007FFF07FFFF807FFFCFD9
:1038A000FFFF803FFFFFFFFFC03FFFFFFFFFC03F65
:1038B000FFFFFFFFC03FFFFFFFFFC03FFFFFFFFF16
:1038C000E01FFFFFFFFFE01FFFFFFFFFE01FFFFF05
:1038D000FFFFE01FFFFFFFFFE01FFFFFFFFFE01FF5
:1038E000FFFFFFFFE01FFF07FFFFE01FFC03FFFFDD
:1038F000E03FFC01FFFFE03FF801FFFFE03FF80180
:10390000FFFFC03FF801FFFFC03FF801FFFFC07F8E
:10391000F803FFFFC07FF807FFFF807FFC07FFFF72
:1039200080FFFC07FFFF80FFFE07FFFF01FFFE0790
:10393000FFFE03FFFF03FFFE03FFFF81FFFC07FF06
:10394000FFE0FFF00FFFFFF00FC03FFFFFFC0000A4
:10395000FFFFFFFF8007FFFFFFFFFFFFFFFFFFFFEE
:10396000FFFFFFFFFFFFFFFFFFFFFFFFFFFFFFFF67
:10397000FFFFFFFFFFFFFFFFFFFFFFFFFFFFFFFF57
:10398000FFFFFFFFFFFFFFFFFFFFFFFFFFFFFFFF47
:10399000FFFFFFFFFFFFFFFFFFFFFFFFFFFFFFFF37
:1039A000FFFFFFFFFFFFFFFFFFFFFFFFFFFFFFFF27
:1039B000FFFFFFFFFFFFFFFFFFFFFFFFFFFFFFFF17
:1039C000FFFFFFFFFFFFFFFFFFFFFFFFFFFFFFFF07
:1039D000FFFFFFFFFFFFFFFFFFFFFFFFFFFFFFFFF7
:1039E000FFFFFFFFFFFFFFFFFFFFFFFFFFFFFFFFE7
:1039F000FFFFFFFFFFFFFFFFFFFFFFFFFFFFFFFFD7
:103A0000FFFFFFFFFFFFFFFFFFFFFFFFFFFFFFFFC6
:103A1000FFFFFFFFFFFFFFFFFFFFFFFFFFFFFFFFB6
:103A2000FFFFFFFFFFFFFFFFFFFFFFFFFFFFFFFFA6
:103A3000FFFFFFFFFFFFFFFFFFFFFFFFFFFFFE0096
:103A40007FFFFFFFE0001FFFFFFF80FC07FFFFFF7E
:103A500003FE03FFFFFC0FFE01FFFFF81FFE01FF47
:103A6000FFF03FFE00FFFFE07FFE00FFFFE0FFFEF4
:103A700000FFFFC0FFFE00FFFF81FFFE00FFFF8190
:103A8000FFFF00FFFF01FFFF81FFFF03FFFFFFFFBD
:103A9000FE03FFFFFFFFFE03FFFFFFFFFC03FFFF2F
:103AA000FFFFFC07FFFFFFFFFC07FFFFFFFFFC0717
:103AB000FFFFFFFFF807FFFFFFFFF807FFFFFFFF14
:103AC000F807FFFFFFFFF807FFFFFFFFF807FC0005
:103AD000FFFFF007E0001FFFF00780000FFFF00777
:103AE000000003FFF00C01F001FFF00C0FFC00FFE1
:103AF000F0081FFE00FFF0003FFF007FF0007FFF97
:103B0000807FF000FFFFC03FF001FFFFC03FF003E8
:103B1000FFFFE01FF003FFFFE01FF007FFFFE01FC4
:103B2000F007FFFFE01FF00FFFFFF00FF00FFFFFA8
:103B3000F00FF00FFFFFF00FF00FFFFFF00FF00797
:103B4000FFFFF00FF007FFFFF00FF007FFFFF00F90
:103B5000F807FFFFF00FF807FFFFF00FF807FFFF70
:103B6000F00FF807FFFFF01FFC03FFFFF01FFC033F
:103B7000FFFFF01FFC03FFFFE01FFE03FFFFE01F3E
:103B8000FE01FFFFE03FFE01FFFFE03FFF00FFFF00
:103B9000E07FFF80FFFFC07FFF807FFFC0FFFFC08F
:103BA0003FFF81FFFFE03FFF03FFFFF00FFE07FF36
:103BB000FFF807FC0FFFFFFC01F01FFFFFFF0000F5
:103BC0007FFFFFFFE003FFFFFFFFFFFFFFFFFFFFA0
:103BD000FFFFFFFFFFFFFFFFFFFFFFFFFFFFFFFFF5
:103BE000FFFFFFFFFFFFFFFFFFFFFFFFFFFFFFFFE5
:103BF000FFFFFFFFFFFFFFFFFFFFFFFFFFFFFFFFD5
:103C0000FFFFFFFFFFFFFFFFFFFFFFFFFFFFFFFFC4
:103C1000FFFFFFFFFFFFFFFFFFFFFFFFFFFFFFFFB4
:103C2000FFFFFFFFFFFFFFFFFFFFFFFFFFFFFFFFA4
:103C3000FFFFFFFFFFFFFFFFFFFFFFFFFFFFFFFF94
:103C4000FFFFFFFFFFFFFFFFFFFFFFFFFFFFFFFF84
:103C5000FFFFFFFFFFFFFFFFFFFFFFFFFFFFFFFF74
:103C6000FFFFFFFFFFFFFFFFFFFFFFFFFFFFFFFF64
:103C7000FFFFFFFFFFFFFFFFFFFFFFFFFFFFFFFF54
:103C8000FFFFFFFFFFFFFFFFFFFFFFFFFFFFFFFF44
:103C9000FFFFFFFFFFFFFFFFFFFFFFFFFFFFFFFF34
:103CA000FFFFFFFFFFFFFFFFFFFFFFFFFFFFFFFF24
:103CB000FFFFFF000000001FFF000000001FFE00CC
:103CC0000000001FFE000000001FFE000000003F7B
:103CD000FE00FFFFF07FFE03FFFFF07FFE07FFFF08
:103CE000E0FFFC0FFFFFC0FFFC1FFFFFC1FFFC1F39
:103CF000FFFF81FFFC3FFFFF83FFFC3FFFFF07FF4C
:103D0000FC3FFFFF07FFF87FFFFE0FFFF87FFFFE7E
:103D10000FFFFFFFFFFC1FFFFFFFFFFC1FFFFFFF69
:103D2000FFF83FFFFFFFFFF83FFFFFFFFFF03FFF00
:103D3000FFFFFFF07FFFFFFFFFE07FFFFFFFFFE0E0
:103D4000FFFFFFFFFFC0FFFFFFFFFFC1FFFFFFFF00
:103D5000FF81FFFFFFFFFF81FFFFFFFFFF03FFFF6B
:103D6000FFFFFF03FFFFFFFFFE07FFFFFFFFFE0751
:103D7000FFFFFFFFFE07FFFFFFFFFC07FFFFFFFF47
:103D8000FC0FFFFFFFFFF80FFFFFFFFFF80FFFFF24
:103D9000FFFFF81FFFFFFFFFF01FFFFFFFFFF01FF8
:103DA000FFFFFFFFE01FFFFFFFFFE01FFFFFFFFF21
:103DB000E03FFFFFFFFFE03FFFFFFFFFC03FFFFFD0
:103DC000FFFFC03FFFFFFFFFC03FFFFFFFFFC03F00
:103DD000FFFFFFFF803FFFFFFFFF803FFFFFFFFF71
:103DE000803FFFFFFFFF803FFFFFFFFF803FFFFFA0
:103DF000FFFF803FFFFFFFFF003FFFFFFFFF003F90
:103E0000FFFFFFFF003FFFFFFFFF003FFFFFFFFF40
:103E1000003FFFFFFFFF003FFFFFFFFF003FFFFFEF
:103E2000FFFF003FFFFFFFFF803FFFFFFFFF803FDF
:103E3000FFFFFFFFE07FFFFFFFFFFFFFFFFFFFFF31
:103E4000FFFFFFFFFFFFFFFFFFFFFFFFFFFFFFFF82
:103E5000FFFFFFFFFFFFFFFFFFFFFFFFFFFFFFFF72
:103E6000FFFFFFFFFFFFFFFFFFFFFFFFFFFFFFFF62
:103E7000FFFFFFFFFFFFFFFFFFFFFFFFFFFFFFFF52
:103E8000FFFFFFFFFFFFFFFFFFFFFFFFFFFFFFFF42
:103E9000FFFFFFFFFFFFFFFFFFFFFFFFFFFFFFFF32
:103EA000FFFFFFFFFFFFFFFFFFFFFFFFFFFFFFFF22
:103EB000FFFFFFFFFFFFFFFFFFFFFFFFFFFFFFFF12
:103EC000FFFFFFFFFFFFFFFFFFFFFFFFFFFFFFFF02
:103ED000FFFFFFFFFFFFFFFFFFFFFFFFFFFFFFFFF2
:103EE000FFFFFFFFFFFFFFFFFFFFFFFFFFFFFFFFE2
:103EF000FFFFFFFFFFFFFFFFFFFFFFFFFFFFFFFFD2
:103F0000FFFFFFFFFFFFFFFFFFFFFFFFFFFFFFFFC1
:103F1000FFFFFFFFFFFFFFFFFFFFFFFFFFFFC003EC
:103F2000FFFFFFFE00007FFFFFF80FE01FFFFFE035
:103F30007FFC0FFFFFC0FFFE07FFFF81FFFF03FFB6
:103F4000FF03FFFF81FFFE07FFFFC0FFFE07FFFF2C
:103F5000C07FFC0FFFFFE07FFC0FFFFFE03FF80F8B
:103F6000FFFFE03FF80FFFFFE03FF80FFFFFF03FDC
:103F7000F80FFFFFF03FF80FFFFFF03FF80FFFFFD4
:103F8000F03FF80FFFFFF03FF807FFFFE03FF803B7
:103F9000FFFFE03FFC03FFFFE07FFC01FFFFC07F6E
:103FA000FE00FFFFC0FFFE007FFF80FFFF001FFF3E
:103FB00081FFFF800FFF03FFFFC003FE07FFFFE04D
:103FC00000FC0FFFFFF000301FFFFFF800007FFF35
:103FD000FFFE0000FFFFFFFE0000FFFFFFF80000F4
:103FE0007FFFFFF030001FFFFFE07C000FFFFF802E
:103FF000FF0007FFFF01FFC003FFFF03FFE001FF1A
:10400000FE03FFF800FFFC07FFFC00FFFC0FFFFEB4
:10401000007FF80FFFFF007FF81FFFFF803FF01FBA
:10402000FFFFC03FF01FFFFFC01FF01FFFFFE01F9B
:10403000F03FFFFFE01FE03FFFFFF01FE03FFFFF0B
:10404000F01FE03FFFFFF01FE03FFFFFF01FE03FEA
:10405000FFFFF01FF03FFFFFF01FF03FFFFFF01FDB
:10406000F01FFFFFF03FF81FFFFFE03FF81FFFFFCB
:10407000E07FFC0FFFFFE07FFC07FFFFC0FFFE07B4
:10408000FFFF81FFFF03FFFF83FFFF80FFFE07FFAE
:10409000FFE07FFC0FFFFFF00FE01FFFFFFC0000C1
:1040A0007FFFFFFFC007FFFFFFFFFFFFFFFFFFFFD7
:1040B000FFFFFFFFFFFFFFFFFFFFFFFFFFFFFFFF10
:1040C000FFFFFFFFFFFFFFFFFFFFFFFFFFFFFFFF00
:1040D000FFFFFFFFFFFFFFFFFFFFFFFFFFFFFFFFF0
:1040E000FFFFFFFFFFFFFFFFFFFFFFFFFFFFFFFFE0
:1040F000FFFFFFFFFFFFFFFFFFFFFFFFFFFFFFFFD0
:10410000FFFFFFFFFFFFFFFFFFFFFFFFFFFFFFFFBF
:10411000FFFFFFFFFFFFFFFFFFFFFFFFFFFFFFFFAF
:10412000FFFFFFFFFFFFFFFFFFFFFFFFFFFFFFFF9F
:10413000FFFFFFFFFFFFFFFFFFFFFFFFFFFFFFFF8F
:10414000FFFFFFFFFFFFFFFFFFFFFFFFFFFFFFFF7F
:10415000FFFFFFFFFFFFFFFFFFFFFFFFFFFFFFFF6F
:10416000FFFFFFFFFFFFFFFFFFFFFFFFFFFFFFFF5F
:10417000FFFFFFFFFFFFFFFFFFFFFFFFFFFFFFFF4F
:10418000FFFFFFFFFFFFFFFFFFFFFFFFFFFF800FAE
:10419000FFFFFFFC0001FFFFFFF00FC07FFFFFE00C
:1041A0003FF01FFFFFC0FFFC0FFFFF81FFFE07FF77
:1041B000FF01FFFE07FFFE03FFFF03FFFE07FFFFF8
:1041C00001FFFC07FFFF81FFF807FFFF80FFF80FEB
:1041D000FFFFC0FFF80FFFFFC07FF00FFFFFC07FA2
:1041E000F00FFFFFC03FF00FFFFFC03FF01FFFFFCA
:1041F000E03FF01FFFFFE03FE01FFFFFE01FE01F79
:10420000FFFFE01FE01FFFFFE01FE01FFFFFE01FB9
:10421000E01FFFFFE01FE01FFFFFE01FF00FFFFFA9
:10422000E01FF00FFFFFC01FF00FFFFFC01FF00FD8
:10423000FFFF801FF00FFFFF801FF007FFFF001F31
:10424000F807FFFF001FF803FFFE001FF803FFFC45
:10425000001FFC01FFF8001FFC00FFF0201FFE0004
:104260007FE0601FFF001F00E01FFF800001C01FF4
:10427000FFE00003C01FFFF0000FC01FFFFE003F64
:10428000C01FFFFFFFFFC03FFFFFFFFFC03FFFFF5B
:10429000FFFFC03FFFFFFFFFC03FFFFFFFFF803F6B
:1042A000FFFFFFFF807FFFFFFFFF807FFFFFFFFF1C
:1042B000807FFFFFFFFF80FFFFFFFFFF00FFFFFF8B
:1042C000FFFF01FFFFFFFFFF01FFFF83FFFE03FF73
:1042D000FF01FFFE03FFFE00FFFC07FFFE00FFFCE7
:1042E00007FFFE00FFF80FFFFE00FFF81FFFFE00B4
:1042F000FFF01FFFFE00FFE03FFFFF00FFC07FFF5A
:10430000FF807F81FFFFFFC03C03FFFFFFF0000F36
:10431000FFFFFFFC007FFFFFFFFFFFFFFFFFFFFF2F
:10432000FFFFFFFFFFFFFFFFFFFFFFFFFFFFFFFF9D
:10433000FFFFFFFFFFFFFFFFFFFFFFFFFFFFFFFF8D
:10434000FFFFFFFFFFFFFFFFFFFFFFFFFFFFFFFF7D
:10435000FFFFFFFFFFFFFFFFFFFFFFFFFFFFFFFF6D
:10436000FFFFFFFFFFFFFFFFFFFFFFFFFFFFFFFF5D
:10437000FFFFFFFFFFFFFFFFFFFFFFFFFFFFFFFF4D
:10438000FFFFFFFFFFFFFFFFFFFFFFFFFFFFFFFF3D
:10439000FFFFFFFFFFFFFFFFFFFFFFFFFFFFFFFF2D
:1043A000FFFFFFFFFFFFFFFFFFFFFFFFFFFFFFFF1D
:1043B000FFFFFFFFFFFFFFFFFFFFFFFFFFFFFFFF0D
:1043C000FFFFFFFFFFFFFFFFFFFFFFFFFFFFFFFFFD
:1043D000FFFFFFFFFFFFFFFFFFFFFFFFFFFFFFFFED
:1043E000FFFFFFFFFFFFFFFFFFFFFFFFFFFFFFFFDD
:1043F000FFFFFFFFFFFFFFFFFFFFFFFFFFFFFFFFCD
:10440000FFFFFFFFFFFFFFFFFFFFFFFFFFFFFFFFBC
:10441000FFFFFFFFFFFFFFFFFFFFFFFFFFFFFFFFAC
:10442000FFFFF00FFFFFFFFFF00FFFFFFFFFC003D5
:10443000FFFFFFFFC003FFFFFFFF0000FFFFFFFFC5
:104440000000FFFFFFFF0000FFFFFFFF0000FFFF76
:10445000FFFF0000FFFFFFFF0000FFFFFFFFC003A3
:10446000FFFFFFFFC003FFFFFFFFF00FFFFFFFFF96
:10447000F00FFFFFFFFFFFFFFFFFFFFFFFFFFFFF4B
:10448000FFFFFFFFFFFFFFFFFFFFFFFFFFFFFFFF3C
:10449000FFFFFFFFFFFFFFFFFFFFFFFFFFFFFFFF2C
:1044A000FFFFFFFFFFFFFFFFFFFFFFFFFFFFFFFF1C
:1044B000FFFFFFFFFFFFFFFFFFFFFFFFFFFFFFFF0C
:1044C000FFFFFFFFFFFFFFFFFFFFFFFFFFFFFFFFFC
:1044D000FFFFFFFFFFFFFFFFFFFFFFFFFFFFFFFFEC
:1044E000FFFFFFFFFFFFFFFFFFFFFFFFFFFFFFFFDC
:1044F000FFFFFFFFFFFFFFFFFFFFFFFFFFFFFFFFCC
:10450000FFFFFFFFFFFFF00FFFFFFFFFF00FFFFFB9
:10451000FFFFC003FFFFFFFFC003FFFFFFFF00001F
:10452000FFFFFFFF0000FFFFFFFF0000FFFFFFFF97
:104530000000FFFFFFFF0000FFFFFFFF0000FFFF85
:10454000FFFFC003FFFFFFFFC003FFFFFFFFF00FF0
:10455000FFFFFFFFF00FFFFFFFFFFFFFFFFFFFFF6A
:10456000FFFFFFFFFFFFFFFFFFFFFFFFFFFFFFFF5B
:10457000FFFFFFFFFFFFFFFFFFFFFFFFFFFFFFFF4B
:10458000FFFFFFFFFFFFFFFFFFFFFFFFFFFFFFFF3B
:10459000FFFFFFFFFFFFFFFFFFFFFFFFFFFFFFFF2B
:10487000FFFFFFFFFFFFFFFFFFFFFFFF0000000044
:104880000000000000000000000000000000000028
:104890000000000000000000000000000000000018
:1048A0000000000000000000000000000000000008
:1048B00000000000000000000000000000000000F8
:104C20000000000000000000001FFE000000000067
:104C30000000000000000000000000000000000074
:104C40000000000000000000000000000000000064
:104C50000000000000000000000000000000000054
:104C60000000000000000000000000000000000044
:104C700000000000000001FFFFFE00000000003FF8
:104C8000FFFF000007FC07FE0001FF00007FFFC0E0
:104C90001FF00007FC0000007FFFFFF800000FFF7F
:104CA000FFE000003FF8000FFFFFE000FFFFFFF014
:104CB0007FFFFF80000000000000000000000000F7
:104CC00000000000000000000000000000000000E4
:104CD0000000000000000000000003FFFFFE0000D5
:104CE0000000003FFFFF000007FC07FF0001FF007E
:104CF00001FFFFE01FF00007FC0000007FFFFFF84E
:104D000000000FFFFFFC00007FFC000FFFFFFC0016
:104D1000FFFFFFF07FFFFFE0000000000000000049
:104D20000000000000000000000000000000000083
:104D3000000000000000000000000000000003FF71
:104D4000FFFE00000000003FFFFF000007FC07FF20
:104D50008001FF0007FFFFF81FF00007FC000000C4
:104D60007FFFFFF800000FFFFFFF00007FFC000F38
:104D7000FFFFFF00FFFFFFF07FFFFFF800000000D4
:104D80000000000000000000000000000000000023
:104D90000000000000000000000000000000000013
:104DA000000003FFFFFC00000000003FFFFE0000CA
:104DB00007FC07FF8001FF000FFFFFFC1FF000074B
:104DC000FC0000007FFFFFF800000FFFFFFF8000E6
:104DD0007FFC000FFFFFFF80FFFFFFF07FFFFFFC66
:104DE00000000000000000000000000000000000C3
:104DF00000000000000000000000000000000000B3
:104E000000000000000003F000FC0000000000387B
:104E10000000000007FC07FFC001FF001FFFFFFEAE
:104E20001FF00007FC0000007FFFFFF800000FFFED
:104E3000FFFFC000FFFE000FFFFFFFC0FFFFFFF0FE
:104E40007FFFFFFE000000000000000000000000E7
:104E50000000000000000000000000000000000052
:104E60000000000000000000000003E000F8000067
:104E7000000000380000000007FC07FFC001FF0031
:104E80003FFFFFFE1FF00007FC0000007FFFFFF860
:104E900000000FFFFFFFE000FFFE000FFFFFFFE03D
:104EA000FFFFFFF07FFFFFFF000000000000000099
:104EB00000000000000000000000000000000000F2
:104EC000000000000000000000000000000003C01F
:104ED00001F80000000000380000000007FC07FF98
:104EE000E001FF007FFFFFFC1FF00007FC00000057
:104EF0007FFFFFF800000FFFFFFFF000FFFE000F35
:104F0000FFFFFFF0FFFFFFF07FFFFFFF80000000CB
:104F10000000000000000000000000000000000091
:104F20000000000000000000000000000000000081
:104F3000000007C001F00000000000380000000081
:104F400007FC07FFE001FF007FFE07F81FF00007E6
:104F5000FC0000007FFFFFF800000FF80FFFF001DA
:104F6000FFFF000FF80FFFF0FFFFFFF07FC03FFFD4
:104F700080000000000000000000000000000000B1
:104F80000000000000000000000000000000000021
:104F9000000000000000078003E00000000000386F
:104FA0000000000007FC07FFF001FF00FFF001F028
:104FB0001FF00007FC0000007FC0000000000FF899
:104FC000007FF001FFFF000FF8007FF0FF8000007E
:104FD0007FC003FFC00000000000000000000000D0
:104FE00000000000000000000000000000000000C1
:104FF00000000000000000000000078003E0000047
:10500000000000380000000007FC07FFF001FF016E
:10501000FFE000E01FF00007FC0000007FC0000080
:1050200000000FF8003FF801FEFF000FF8003FF806
:10503000FF8000007FC001FFC000000000000000F2
:105040000000000000000000000000000000000060
:1050500000000000000000000000000000000780C9
:1050600007C00000000000380000000007FC07FF38
:10507000F801FF01FFC000401FF00007FC00000026
:105080007FC0000000000FF8001FF803FEFF800F34
:10509000F8001FF8FF8000007FC000FFC000000084
:1050A0000000000000000000000000000000000000
:1050B00000000000000000000000000000000000F0
:1050C0000000000007C000000000007800000000A1
:1050D00007FC07FFFC01FF03FF8000001FF0000733
:1050E000FC0000007FC0000000000FF8001FF80364
:1050F000FCFF800FF8001FF8FF8000007FC000FF5A
:10510000C0000000000000000000000000000000DF
:10511000000000000000000000000000000000008F
:1051200000000000000000000F8000000000007080
:105130000000000007FC07FFFC01FF03FF800000E8
:105140001FF00007FC0000007FC0000000000FF807
:10515000000FF803FCFF800FF8000FF8FF8000003D
:105160007FC0007FC00000000000000000000000C1
:10517000000000000000000000000000000000002F
:105180000000000000000000000000000F80000090
:10519000000000700000000007FC07FFFE01FF0395
:1051A000FF0000001FF00007FC0000007FC00000AF
:1051B00000000FF8000FF807FC7FC00FF8000FF891
:1051C000FF8000007FC0007FC000000000000000E2
:1051D00000000000000000000000000000000000CF
:1051E00000000000000000000000000000000000BF
:1051F0001F000000000000700000000007FC07FF17
:10520000FE01FF03FF0000001FF00007FC0000008C
:105210007FC0000000000FF8000FF807FC7FC00FF0
:10522000F8000FF8FF8000007FC000FFC000000002
:10523000000000000000000000000000000000006E
:10524000000000000000000000000000000000005E
:10525000000000001F00000000000070FF80000040
:1052600007FC07FDFF01FF07FE0000001FF000071D
:10527000FC0000007FC0000000000FF8001FF807CE
:10528000F87FC00FF8001FF8FF8000007FC000FF0C
:10529000C00000000000000000000000000000004E
:1052A00000000000000000000000000000000000FE
:1052B00000000000000000003E0000000000007739
:1052C000FFF0000007FC07FDFF01FF07FE000000E4
:1052D0001FF00007FC0000007FC0000000000FF876
:1052E000001FF80FF83FE00FF8001FF8FF800000E4
:1052F0007FC000FFC00000000000000000000000B0
:10530000000000000000000000000000000000009D
:105310000000000000000000000000003E0000004F
:105320000000007FFFF8000007FC07FCFF81FF077B
:10533000FE0000001FFFFFFFFC0000007FFFFFC01A
:1053400000000FF8001FF80FF83FE00FF8001FF8FB
:10535000FFFFFF807FC001FFC000000000000000D1
:10536000000000000000000000000000000000003D
:10537000000000000000000000000000000000002D
:105380007C0000000000007FC3FC000007FC07FC5D
:10539000FF81FF07FE0000001FFFFFFFFC00000071
:1053A0007FFFFFC000000FF8003FF00FF83FE00F55
:1053B000F8003FF0FFFFFF807FC007FF8000000084
:1053C00000000000000000000000000000000000DD
:1053D00000000000000000000000000000000000CD
:1053E000000000007C0000000000007F00FE0000C4
:1053F00007FC07FC7FC1FF07FE0000001FFFFFFF47
:10540000FC0000007FFFFFC000000FF800FFF01F4E
:10541000F03FF00FF800FFF0FFFFFF807FC03FFF7D
:1054200080000000000000000000000000000000FC
:10543000000000000000000000000000000000006C
:105440000000000000000000F80000000000007EE6
:10545000007E000007FC07FC7FC1FF07FC00000086
:105460001FFFFFFFFC0000007FFFFFC000000FF8E0
:1054700007FFF01FF01FF00FF807FFF0FFFFFF809E
:105480007FFFFFFF000000000000000000000000A0
:10549000000000000000000000000000000000000C
:1054A000000000000000000000000000F800000004
:1054B0000000007C007F000007FC07FC3FE1FF07C5
:1054C000FC0000001FFFFFFFFC0000007FFFFFC08B
:1054D00000000FFFFFFFE01FF01FF00FFFFFFFE0D6
:1054E000FFFFFF807FFFFFFF0000000000000000C3
:1054F00000000000000000000000000000000000AC
:10550000000000000000000000000000000000009B
:10551000F80000000000007C003F000007FC07FCD2
:105520003FF1FF07FC0000001FFFFFFFFC00000031
:105530007FFFFFC000000FFFFFFFC03FF01FF00F15
:10554000FFFFFFC0FFFFFF807FFFFFFE00000000A6
:10555000000000000000000000000000000000004B
:10556000000000000000000000000000000000003B
:1055700000000001F000000000000038003F800043
:1055800007FC07FC1FF1FF07FC0000001FFFFFFFE7
:10559000FC0000007FFFFFC0FFFF8FFFFFFFC03F49
:1055A000E01FF80FFFFFFFC0FFFFFF807FFFFFFC42
:1055B00000000000000000000000000000000000EB
:1055C00000000000000000000000000000000000DB
:1055D0000000000000000001F000000000000000DA
:1055E000003F800007FC07FC1FF9FF07FE000000DA
:1055F0001FFFFFFFFC0000007FFFFFC0FFFF8FFFCA
:10560000FFFF003FE00FF80FFFFFFF00FFFFFF80ED
:105610007FFFFFF800000000000000000000000015
:10562000000000000000000000000000000000007A
:10563000000000000000000000000003F000000077
:1056400000000000001F800007FC07FC0FF9FF07A7
:10565000FE0000001FF00007FC0000007FC00000FB
:10566000FFFF8FFFFFFE003FE00FF80FFFFFFE0080
:10567000FF8000007FFFFFE000000000000000004E
:10568000000000000000000000000000000000001A
:105690000000000000000000000000000000000307
:1056A000F000000000000000001F800007FC07FC65
:1056B0000FF9FF07FE0000001FF00007FC000000CC
:1056C0007FC00000FFFF8FFFFFF8007FFFFFFC0F90
:1056D000FFFFF800FF8000007FFFFFC00000000018
:1056E00000000000000000000000000000000000BA
:1056F00000000000000000000000000000000000AA
:1057000000000003E000000000000000001F800017
:1057100007FC07FC07FDFF07FE0000001FF0000765
:10572000FC0000007FC00000FFFF8FFFFFC0007F74
:10573000FFFFFC0FFFFFC000FF8000007FC0FFE005
:105740000000000000000000000000000000000059
:105750000000000000000000000000000000000049
:105760000000000000000003E00000000000000056
:10577000001F800007FC07FC07FDFF07FE0000007C
:105780001FF00007FC0000007FC00000FFFF8FF843
:105790000000007FFFFFFC0FF8000000FF8000000A
:1057A0007FC07FE00000000000000000000000005B
:1057B00000000000000000000000000000000000E9
:1057C000000000000000000000000007E0000000F2
:1057D000000000F8001F800007FC07FC03FFFF0724
:1057E000FF0000001FF00007FC0000007FC0000069
:1057F000FFFF8FF8000000FFFFFFFE0FF800000022
:10580000FF8000007FC07FF000000000000000006B
:105810000000000000000000000000000000000088
:105820000000000000000000000000000000000771
:10583000E0000000000000FC001F800007FC07FCE7
:1058400001FFFF03FF0000001FF00007FC00000045
:105850007FC0000000000FF8000000FFFFFFFE0FF8
:10586000F8000000FF8000007FC03FF8000000004B
:105870000000000000000000000000000000000028
:105880000000000000000000000000000000000018
:1058900000000007E0000000000001FC001F800085
:1058A00007FC07FC01FFFF03FF8000001FF000075B
:1058B000FC0000007FC0000000000FF8000000FFA7
:1058C000FFFFFE0FF8000000FF8000007FC03FF8E0
:1058D00000000000000000000000000000000000C8
:1058E00000000000000000000000000000000000B8
:1058F0000000000000000007E0000000000001FCC4
:10590000001F800007FC07FC00FFFF03FF80000072
:105910001FF00007FC0000007FC0000000000FF82F
:10592000000001FFFFFFFF0FF8000000FF800000F4
:105930007FC01FFC0000000000000000000000000D
:105940000000000000000000000000000000000057
:1059500000000000000000000000000FE000000058
:10596000000001FC003F800007FC07FC00FFFF0176
:10597000FFC000701FF00007FC0000007FC00000A7
:1059800000000FF8000001FF0003FF0FF800000007
:10599000FF8000007FC01FFC00000000000000002E
:1059A00000000000000000000000000000000000F7
:1059B0000000000000000000000000000000000FD8
:1059C000E0000000000001FC003F000007FC07FCB5
:1059D000007FFF01FFE000F81FF00007FC0000005F
:1059E0007FC0000000000FF8000001FF0001FF0F62
:1059F000F8000000FF8000007FC00FFE00000000E4
:105A00000000000000000000000000000000000096
:105A10000000000000000000000000000000000086
:105A20000000000FE00000F8000001F8003F000057
:105A300007FC07FC007FFF00FFF001FC1FF00007E0
:105A4000FC0000007FC0000000000FF8000003FF12
:105A50000001FF8FF8000000FF8000007FC00FFEF4
:105A60000000000000000000000000000000000036
:105A70000000000000000000000000000000000026
:105A8000000000000000000FE00001FC000001F831
:105A9000007F000007FC07FC003FFF00FFFE0FFC3B
:105AA0001FF00007FC0000007FFFFFF800000FF868
:105AB000000003FF0001FF8FF8000000FFFFFFF070
:105AC0007FC007FF00000000000000000000000091
:105AD00000000000000000000000000000000000C6
:105AE00000000000000000000000000FE00003FEC6
:105AF000000000F8007E000007FC07FC003FFF00EC
:105B00007FFFFFFE1FF00007FC0000007FFFFFF893
:105B100000000FF8000003FE0001FF8FF8000000F6
:105B2000FFFFFFF07FC003FF8000000000000000C7
:105B30000000000000000000000000000000000065
:105B40000000000000000000000000000000000F46
:105B5000E00003FE0000007800FC000007FC07FCEA
:105B6000001FFF003FFFFFFF1FF00007FC000000C9
:105B70007FFFFFF800000FF8000007FE0000FFCFD6
:105B8000F8000000FFFFFFF07FC003FF800000006F
:105B90000000000000000000000000000000000005
:105BA00000000000000000000000000000000000F5
:105BB0000000000FE00003FE0000003C01FC0000BC
:105BC00007FC07FC001FFF001FFFFFFE1FF0000780
:105BD000FC0000007FFFFFF800000FF8000007FE48
:105BE0000000FFCFF8000000FFFFFFF07FC001FFC3
:105BF000C0000000000000000000000000000000E5
:105C00000000000000000000000000000000000094
:105C1000000000000000000FE00003FE0000001F75
:105C200087F8000007FC07FC000FFF000FFFFFFCD8
:105C30001FF00007FC0000007FFFFFF800000FF8D6
:105C4000000007FC0000FFCFF8000000FFFFFFF09E
:105C50007FC001FFC0000000000000000000000045
:105C60000000000000000000000000000000000034
:105C700000000000000000000000000FE00001FC38
:105C80000000000FFFE0000007FC07FC000FFF0012
:105C900007FFFFF81FF00007FC0000007FFFFFF880
:105CA00000000FF800000FFC0000FFEFF8000000FC
:105CB000FFFFFFF07FC000FFE000000000000000D9
:105CC00000000000000000000000000000000000D4
:105CD00000000000000000000000000000000007BD
:105CE000C00000F800000001FF80000007FC07FC76
:105CF0000007FF0003FFFFF01FF00007FC0000009B
:105D00007FFFFFF800000FF800000FFC00007FEF9E
:105D1000F8000000FFFFFFF07FC000FFE000000080
:105D20000000000000000000000000000000000073
:105D30000000000000000000000000000000000063
:105D40000000000000000000000000000000000053
:105D500007FC07FC0003FF0000FFFFC01FF0000767
:105D6000FC0000007FFFFFF800000FF800000FFCB0
:105D700000007FEFF8000000FFFFFFF07FC0007F12
:105D8000F000000000000000000000000000000023
:105D90000000000000000000000000000000000003
:105DA00000000000000000000000000000000000F3
:105DB000000000000000000000000000001FFE00C6
:105DC00000000000000000000000000000000000D3
:105DD00000000000000000000000000000000000C3
:105DE00000000000000000000000000000000000B3
:105DF00000000000000000000000000000000000A3
:108FB0000000000000000000000000000001FFC0F1
:108FC00000000000000000000000000000000000A1
:108FD0000000000000000000000000000000000091
:108FE0000000000000000000000000000000000081
:108FF0000000000000000000000000000000000071
:109000000000000000000000000000000000000060
:109010000000000000000000000000000000000050
:10902000000FFFF80000000000000000000000003A
:109030000000000000000000000000000000000030
:109040000000000000000000000000000000000020
:109050000000000000000000000000000000000010
:109060000000000000000000000000000000000000
:1090700000000000000000000000000000000000F0
:1090800000000000007F03FE000000000000000060
:1090900000000000000000000000000000000000D0
:1090A00000000000000000000000000000000000C0
:1090B00000000000000000000000000000000000B0
:1090C00000000000000000000000000000000000A0
:1090D0000000000000000000000000000000000090
:1090E000000000000000000000FC007F8000000085
:1090F0000000000000000000000000000000000070
:10910000000000000000000000000000000000005F
:10911000000000000000000000000000000000004F
:10912000000000000000000000000000000000003F
:10913000000000000000000000000000000000002F
:1091400000000000000000000000000003F0003FED
:10915000C00000000000000000000000000000004F
:1091600000000000000000000000000000000000FF
:1091700000000000000000000000000000000000EF
:1091800000000000000000000000000000000000DF
:1091900000000000000000000000000000000000CF
:1091A00000000000000000000000000000000000BF
:1091B00007E0001FE00000000000000000000000C9
:1091C000000000000000000000000000000000009F
:1091D000000000000000000000000000000000008F
:1091E000000000000000000000000000000000007F
:1091F000000000000000000000000000000000006F
:10920000000000000000000000000000000000005E
:10921000000000000FC0000FE00000000000000090
:10922000000000000000000000000000000000003E
:10923000000000000000000000000000000000002E
:10924000000000000000000000000000000000001E
:10925000000000000000000000000000000000000E
:1092600000000000000000000000000000000000FE
:1092700000000000000000000FC0000FF000000020
:1092800000000000000000000000000000000000DE
:1092900000000000000000000000000000000000CE
:1092A00000000000000000000000000000000000BE
:1092B00000000000000000000000000000000000AE
